:020000040800F2
:1000000000300020C9110008111200081112000868
:10001000111200081112000811120008000000005F
:1000200000000000000000000000000011120008A5
:10003000111200080000000011120008111200083F
:1000400000000000000000000000000000000000B0
:1000500000000000000000000000000000000000A0
:100060000000000000000000000000000000000090
:100070000000000000000000000000000000000080
:100080000000000000000000000000000000000070
:100090000000000000000000000000000000000060
:1000A0000000000000000000000000000000000050
:1000B0000000000000000000000000000000000040
:1000C0000000000000000000000000000000000030
:1000D0000000000000000000000000000000000020
:1000E0000000000000000000000000000000000010
:1000F0000000000000000000000000000000000000
:1001000000000000000000000000000000000000EF
:1001100000000000000000000000000000000000DF
:1001200000000000000000000000000000000000CF
:1001300000000000000000000000000000000000BF
:1001400000000000000000000000000000000000AF
:10015000000000000000000000000000000000009F
:10016000000000000000000000000000000000008F
:10017000000000000000000000000000000000007F
:08018000000000000000000077
:100188000348044B834202D0034B03B1184770471E
:10019800000000200000002000000000054806497B
:1001A8000B1AD90F01EBA301491002D0034B03B17D
:1001B80018477047000000200000002000000000E1
:1001C80010B5064C237843B9FFF7DAFF044B13B197
:1001D8000448AFF300800123237010BD0000002005
:1001E800000000001412000808B5044B1BB10449B4
:1001F8000448AFF30080BDE80840CFE700000000E6
:10020800040000201412000870B50D4E0D4D761B29
:10021800B61006D00024013455F8043B9847A6428E
:10022800F9D1094E094D761B00F0F0FFB61006D043
:100238000024013455F8043B9847A642F9D170BD13
:100248004C1300084C130008501300084C13000806
:1002580082B00023019340F6FE72019B934201D9BC
:1002680002B07047019B01330193F6E710B50446CD
:10027800207800F05DF914F8013F002BF8D110BD8B
:10028800F8B504460E4605462B1B9E420CDD2F464C
:1002980000F034F928700028FAD00A2805F1010581
:1002A800F2D100233B70F8BD3444002304F8013C2C
:1002B800F9E7000010B58CB000F070F800F0AEF867
:1002C80000F0EAF82A4B186802909B882948ADF894
:1002D8000C30FFF7CBFF2848FFF7C8FFFFF7B8FF40
:1002E8002648FFF7C3FFFFF7B3FF2548FFF7BEFF18
:1002F800FFF7AEFF2348FFF7B9FFFFF7A9FF224832
:10030800FFF7B4FF2148FFF7B1FF00F0F0F82048ED
:10031800FFF7ACFF202104A8FFF7B2FF00F0E0F8D8
:1003280002A904AA062311F8014B12F8010B844212
:100338001BD1013B13F0FF03F5D11648FFF796FFD9
:10034800012000F011F90FE0019B01330193019B9B
:10035800002BF9DDFFF77CFFFFF77AFF0E48FFF768
:1003680085FF012000F0F4F8FEE70023EEE700BF68
:10037800451300082F120008521200086F120008D7
:100388008C120008A9120008C6120008C912000839
:10039800F81200082B1300081C13000870B596B05B
:1003A800002403264FF4A0230CA80125CDE90C63F3
:1003B8001094149400F0ECF80F23214602A8CDE91C
:1003C8000235CDE90444069400F050FB114B5A69FC
:1003D80042F400225A615B69CDE9094603F400231F
:1003E8000D4C0193019B07A94FF4C0432046CDE96A
:1003F800073500F0E1FB2A4620464FF4005100F093
:100408009FFC2A464FF48041204600F099FC16B024
:1004180070BD00BF001002400008004810B54FF43E
:10042800C06288B00223CDE9032301210323CDE96B
:100438000513164C07230793636943F4003363617C
:10044800636903F40033019303A94FF09040019BC3
:1004580000F0B2FB0E48DFF83CC04FF41643C0E989
:1004680000C30023C0E90233036183610C234361A5
:10047800A36943F48043A361A36903F4804302930F
:10048800029B00F0B1FD08B010BD00BF0010024093
:100498002400002000380140104B30B55A6942F45E
:1004A80000325A615B6987B003F400330093009B04
:1004B8004FF480540123CDE901430025032301A90A
:1004C8004FF09040CDE9035300F076FB2A462146D1
:1004D8004FF0904000F034FC07B030BD00100240EF
:1004E80001224FF480514FF0904000F029BC0022C7
:1004F8004FF480514FF0904000F022BC37B50A4DC0
:100508000A4C41F2883301220DF10701284600F018
:10051800ECFD18B99DF8070003B030BD236A43F01D
:1005280008032362EDE700BF2400002000380140E3
:1005380007B541F288338DF8070001220DF1070154
:10054800024800F07CFD03B05DF804FB24000020A5
:1005580028B1002203484FF4005100F0F1BB0122FA
:10056800F8E700BF0008004828B1002203484FF40C
:10057800804100F0E5BB0122F8E700BF0008004811
:10058800024B1868421C1A60704700BF1C0000200C
:1005980003682DE9F743D907044611D423689A075D
:1005A80000F1868023681E0700F1F48023685D0748
:1005B80000F13B81E269002A40F0CE81002021E071
:1005C800B7494B6803F00C03042B07D04B6803F0C2
:1005D8000C03082B19D14B68DB0316D54FF40033F5
:1005E80093FAA3F2096893FAA3F3B3FA83F303F037
:1005F8001F03012202FA03F30B42CFD06368002BDA
:10060800CCD1012003B0BDE8F0836268B2F5803F29
:1006180024D10B6843F480330B60CB6AA06823F0C5
:100628000F030343CB624AB3FFF7AAFF4FF4003628
:100638000546012796FAA6F30A6896FAA6F3B3FACE
:1006480083F303F01F0307FA03F31342A6D1FFF75E
:1006580097FF401B6428EDD90320D3E70B6832B914
:1006680023F480330B600B6823F48023D4E7B2F5BE
:10067800A02FF5D143F480230B60CAE7FFF780FF72
:100688004FF400360546012796FAA6F30A6896FA4B
:10069800A6F3B3FA83F303F01F0307FA03F3134235
:1006A8003FF47CAFFFF76CFF401B6428ECD9D3E71D
:1006B8007B494B6813F00C0F07D04B6803F00C0311
:1006C800082B21D14B68DF031ED4022393FAA3F22F
:1006D800086893FAA3F3B3FA83F303F01F03012224
:1006E80002FA03F3034202D02369934289D10868CE
:1006F800F82393FAA3F3B3FA83F26369934020F0E3
:10070800F80213430B604DE72269012502B395FAFD
:10071800A5F3B3FA83F303F1845303F584139B0021
:1007280002271D60FFF72CFF064697FAA7F30A6811
:1007380097FAA7F3B3FA83F303F01F0305FA03F359
:100748001342D4D1FFF71CFF801B0228EDD983E7A1
:1007580095FAA5F3B3FA83F303F1845303F58413ED
:100768009B0002271A60FFF70BFF064697FAA7F3CC
:100778000A6897FAA7F3B3FA83F303F01F0305FA9D
:1007880003F313423FF40EAFFFF7FAFE801B022873
:10079800ECD961E7A269424D4248012112B391FAAE
:1007A800A1F3B3FA83F303449B0002261960FFF711
:1007B800E7FE074696FAA6F396FAA6F396FAA6F384
:1007C8006A6A96FAA6F3B3FA83F303F01F0301FAF1
:1007D80003F313427FF4EAAEFFF7D2FEC01B0228F0
:1007E800E8D939E791FAA1F3B3FA83F303449B00FC
:1007F80002261A60FFF7C4FE074696FAA6F396FA91
:10080800A6F396FAA6F36A6A96FAA6F3B3FA83F3FE
:1008180003F01F0301FA03F313423FF4C7AEFFF7D7
:10082800AFFEC01B0228E8D916E71D49CB69D800DE
:1008380034D4CB6943F08053CB61CB6903F0805348
:100848000193019B0125184E3368DA052ED5E3681C
:10085800012B3BD10B6A43F001030B62FFF790FEBB
:1008680002260746B1464FF0010896FAA6F396FA13
:10087800A6F3002B68D00A6A99FAA9F3B3FA83F3AE
:1008880003F01F0308FA03F3134255D0002D3FF479
:1008980091AECB6923F08053CB618BE60025D2E77C
:1008A800001002402081901000700040336843F42B
:1008B80080733360FFF764FE07463368DB05C6D4F0
:1008C800FFF75EFEC01B6428F7D9C5E633BB0B6A89
:1008D80023F001030B620B6A23F004030B62FFF79A
:1008E8004FFE02260746B1464FF0010896FAA6F3D6
:1008F80096FAA6F363B30A6A99FAA9F3B3FA83F3EB
:1009080003F01F0308FA03F31342BFD0FFF738FEC2
:1009180041F28833C01B9842E8D99DE6052B0B6A43
:1009280003D143F004030B6294E723F001030B6245
:100938000B6A23F0040390E7FFF722FE41F28833A5
:10094800C01B984291D987E696FAA6F34A6A93E7BC
:1009580096FAA6F34A6ACFE742494B6803F00C03BC
:10096800082B3FF44EAE022A4FF0807354D193FA0D
:10097800A3F3B3FA83F303F1845303F584139B00C1
:1009880000221A60FFF7FCFDDFF8DC8006464FF016
:100998000077012597FAA7F30A6897FAA7F3B3FA3D
:1009A80083F303F01F0305FA03F313422ED1D4E9AE
:1009B80008034A68034322F4741213434B604FF050
:1009C800807393FAA3F3B3FA83F303F1845303F523
:1009D80084139B00244F1D60FFF7D2FD4FF0007574
:1009E8000446012695FAA5F30A6895FAA5F3B3FA21
:1009F80083F303F01F0306FA03F313427FF4DEAD1B
:100A0800FFF7BEFD001BB842ECD925E6FFF7B8FD9D
:100A1800801B4045BED91FE693FAA3F3B3FA83F3CC
:100A280003F1845303F584139B0000221A60FFF737
:100A3800A7FD0D4F04464FF00075012695FAA5F362
:100A48000A6895FAA5F3B3FA83F303F01F0306FACD
:100A580003F313423FF4B2ADFFF792FD001BB84217
:100A6800ECD9F9E500100240400D0300504AF8B5F2
:100A7800136803F007038B4204461BD322689007D0
:100A880024D4D2072AD44A4A136803F007038B42B6
:100A98007AD82068430700F1828010F0080014D04B
:100AA800444A2169536823F4605343EAC1035360FD
:100AB80000200AE0136823F007030B431360136850
:100AC80003F007038B42D9D00120F8BD3948A56847
:100AD800436823F0F0032B434360D2E76268354D47
:100AE800012A27D14FF4003393FAA3F0286893FA28
:100AF800A3F3B3FA83F303F01F0302FA03F30342E9
:100B0800E2D06B6823F003031A436A60FFF738FDED
:100B18006368012B064641F288371ED16B6803F0E3
:100B28000C03042BAFD0FFF72BFD801BB842F5D97F
:100B38000320CAE7022A0CBF4FF00073022393FA7E
:100B4800A3F02E6893FAA3F3B3FA83F303F01F0319
:100B5800012000FA03F33342D2E7022B0FD16B686E
:100B680003F00C03082B8ED0FFF70AFD801BB84258
:100B7800F5D9DDE7FFF704FD801BB842D8D86B68CC
:100B880013F00C0FF6D17EE7136823F007030B432D
:100B98001360136803F007038B4295D179E7054981
:100BA800E3684A6822F4E0621A434A6075E700BFC6
:100BB80000200240001002402DE9F74FDFF87C8149
:100BC8005C4C00234FF001090A6832FA03F502D1A0
:100BD80003B0BDE8F08F09FA03FA1AEA020200F03E
:100BE8009E804D6825F0100EBEF1020F14D14FEA19
:100BF800D30C00EB8C0C03F0070BDCF820604FEAF9
:100C08008B0B0F2707FA0BF726EA07070E6906FA78
:100C18000BF63E43CCF82060D0F800B04FEA430C06
:100C2800032606FA0CF72BEA070BFE4305F0030729
:100C380007FA0CF70EF1FF3E47EA0B07BEF1010F6A
:100C4800076011D8876806EA070ECF6807FA0CF71D
:100C580047EA0E078760476827EA0A0AC5F30017BC
:100C68009F4047EA0A074760C76837408E6806FA18
:100C78000CF63E43C660EE0051D5D8F8186046F031
:100C88000106C8F81860D8F8186023F0030707F1C0
:100C9800804706F0010607F58037019603F0030E3A
:100CA800019EBE684FEA8E0E4FF00F0C0CFA0EFC38
:100CB800B0F1904F26EA0C0C33D01F4EB04232D020
:100CC80006F58066B04230D006F58066B0422ED078
:100CD80006F58066B0420CBF0426052606FA0EF615
:100CE80046EA0C06BE602668D74315F4803F0CBF61
:100CF8003E4016432660666815F4003F0CBF3E4030
:100D080016436660A66815F4801F0CBF3E40164364
:100D1800A660E668AD0254BF3E401643E660013364
:100D280052E70026DAE70126D8E70226D6E70326A7
:100D3800D4E700BF0004014000040048001002404E
:100D48000AB181617047816270470000026881685A
:100D5800C36930B5056914682943456924F4164404
:100D6800294324F00C041943214311605168C468D5
:100D7800056A21F44051214351609468816924F443
:100D8800306429432143916062498A4216D101F5B2
:100D98005841096B01F003010139022900F2B280C0
:100DA8005D4CB3F5004F615C77D1082972D8DFE854
:100DB80001F0ACAC2471AC717171A40057498A423E
:100DC8002CD101F5E631096B01F44031B1F5003F52
:100DD80000F090800BD8002900F09480B1F5803F96
:100DE80000F09080B3F5004F54D0012015E0B1F524
:100DF800403FF7D1B3F5004F66D141684B0803F186
:100E0800F47303F59043B3FBF1F300209BB223F096
:100E18000F01C3F342030B43D36030BD40498A42FC
:100E280010D101F5E431096B01F44021B1F5002F2F
:100E380060D004D8002965D0B1F5802FD0E7B1F58E
:100E4800402FD6E737498A4210D101F5E231096BC4
:100E580001F44011B1F5001F4CD004D8002951D03D
:100E6800B1F5801FBCE7B1F5401FC2E72E498A42A1
:100E7800B8D101F5E031096B01F44001B1F5000F7B
:100E880038D004D800293DD0B1F5800FA8E7B1F5D6
:100E9800400FAEE701200023B9E70829A5D801A330
:100EA80053F821F0E90E0008E90E0008D10E0008F9
:100EB800F30D0008E90E0008F30D0008F30D000813
:100EC800F30D0008F30E000841684B0803F574039E
:100ED80003F51053B3FBF1F39BB2D36000209CE7FA
:100EE80041684B0803F5E103F4E741684B0803F553
:100EF8000043EFE7B3F5004FF7D141684B0803F51E
:100F0800803380E7B3F5004FEAD141684B0803F519
:100F1800610378E7003801402C12000800440040C3
:100F280000480040004C004000500040F8B5069FC3
:100F3800044615461E462268D36931EA03030CBFEE
:100F480001230023AB4201D0002014E07B1CF3D026
:100F580097B923681A6822F4D0721A609A6822F046
:100F680001029A60202384F8693084F86A300023EB
:100F780084F868300320F8BDFFF702FB801BB842F5
:100F8800D9D9E6E737B504460021C166FFF7F8FA74
:100F980023681B681A07054617D423681B685B0774
:100FA8000AD56FF07E43009300222B464FF4800150
:100FB8002046FFF7BBFFA0B92023002084F8693042
:100FC80084F8680084F86A300CE06FF07E43009380
:100FD8000A4603464FF400112046FFF7A7FF0028F2
:100FE800DBD0032003B030BD10B5044628B390F819
:100FF800693003F0FF020BB980F8682022682423C7
:1010080084F86930136823F0010313602046FFF762
:101018009DFE012811D023685A6822F490425A6034
:101028009A6822F02A029A601A6842F00102204661
:101038001A60BDE81040FFF7A5BF012010BDF7B545
:101048001E4690F86930202B0D46044611464AD1B9
:10105800002D46D0002A44D090F86830012B42D0A9
:10106800012380F868300023C366212380F86930A3
:10107800FFF786FA0746A4F85010A4F85210B4F8FF
:10108800522092B262B900963B4640212046FFF7B3
:101098004DFF98B9202384F8693084F868000EE081
:1010A800B4F852200096013A92B2A4F852203B4676
:1010B800002280212046FFF739FF10B1032003B03A
:1010C800F0BDA3682268B3F5805F07D123692BB907
:1010D80035F8023BC3F308031385D0E715F8013B45
:1010E800FAE70120EBE70220E9E72DE9F3411E4684
:1010F80090F86A30202B0D46044611465CD1002D2D
:1011080058D0002A56D090F86830012B54D00123CB
:1011180080F8683003684FF0FF321A620023C36614
:10112800222380F86A30FFF72BFAA368A4F8581036
:10113800B3F5805F8046A4F85A1015D123698BB99E
:1011480040F2FF13A4F85C30B4F85C70B4F85A00AD
:1011580080B280B9202384F86A3084F8680002B02D
:10116800BDE8F081FF23EDE7002BEDD12369002BCB
:10117800F8D07F23E6E7B4F85A200096013A92B2F5
:10118800A4F85A204346002220212046FFF7CEFE2D
:10119800A0B9A2682368B2F5805F06D1226922B996
:1011A8009B8C3B4025F8023BD0E79B8C3B4005F8E5
:1011B800013BCBE70120D2E70220D0E70320CEE7AE
:1011C800002103E00B4B5B58435004310A480B4B9A
:1011D80042189A42F6D30A4A02E000231360043206
:1011E800084B9A42F9D3AFF30080FFF70DF8FFF7E9
:1011F80061F8FEE7541300080000002000000020FA
:101208000000002094000020FEE70000F8B500BFB1
:10121800F8BC08BC9E467047F8B500BFF8BC08BCCF
:041228009E46704727
:10122C000408022A2A2A2A2A536166652D6F2D6D1D
:10123C0061746963203330303020426F6F74696E93
:10124C00672E2E2E0A00416C69676E696E672062EC
:10125C006974732E2E2E2E2E2E2E2E5B444F4E4541
:10126C005D0A00436865636B696E6720436573694B
:10127C00756D20524E472E2E5B444F4E455D0A0035
:10128C004D6173717565726164696E6720666C611E
:10129C0073682E2E2E5B444F4E455D0A00446563E9
:1012AC0072797074696E67206461746162617365D0
:1012BC002E2E5B444F4E455D0A000A0A00574152E0
:1012CC004E494E473A20554E415554484F52495A73
:1012DC004544204143434553532057494C4C2042ED
:1012EC00452050554E49534845440A00506C6561A1
:1012FC00736520656E7465722070617373776F729D
:10130C006420746F20636F6E74696E75653A20008B
:10131C0050415353574F5244204641494C0A0041C7
:10132C006363657373206772616E7465642C2057F8
:10133C00656C636F6D65210A00683070783300004E
:04134C00F1010008A3
:04135000C9010008C7
:04000005080011C915
:00000001FF
