:020000040800F2
:1000000000100020E1100008291100082911000843
:10001000291100082911000829110008000000001A
:10002000000000000000000000000000291100088E
:1000300029110008000000002911000829110008FA
:1000400000000000000000000000000000000000B0
:1000500000000000000000000000000000000000A0
:100060000000000000000000000000000000000090
:100070000000000000000000000000000000000080
:100080000000000000000000000000000000000070
:100090000000000000000000000000000000000060
:1000A0000000000000000000000000000000000050
:1000B0000000000000000000000000000000000040
:1000C0000000000000000000000000000000000030
:1000D0000000000000000000000000000000000020
:1000E0000000000000000000000000000000000010
:1000F0000000000000000000000000000000000000
:1001000000000000000000000000000000000000EF
:1001100000000000000000000000000000000000DF
:1001200000000000000000000000000000000000CF
:1001300000000000000000000000000000000000BF
:1001400000000000000000000000000000000000AF
:10015000000000000000000000000000000000009F
:10016000000000000000000000000000000000008F
:10017000000000000000000000000000000000007F
:08018000000000000000000077
:100188000448054B10B5834203D0044B002B00D024
:10019800984710BD04000020040000200000000063
:1001A80006480749091A8B10C90FC91810B5491014
:1001B80003D0044B002B00D0984710BD040000204A
:1001C800040000200000000010B5074C2378002B25
:1001D80009D1FFF7D5FF054B002B02D0044800E0FA
:1001E80000BF0123237010BD0400002000000000A0
:1001F8002C110008054B10B5002B03D00449054805
:1002080000E000BFFFF7CCFF10BDC04600000000B3
:10021800080000202C11000802B471464908490062
:10022800095C49008E4402BC7047C046002243085E
:100238008B4274D303098B425FD3030A8B4244D3A6
:10024800030B8B4228D3030C8B420DD3FF220902E8
:1002580012BA030C8B4202D31212090265D0030BA7
:100268008B4219D300E0090AC30B8B4201D3CB039D
:10027800C01A5241830B8B4201D38B03C01A5241DF
:10028800430B8B4201D34B03C01A5241030B8B42E1
:1002980001D30B03C01A5241C30A8B4201D3CB02CC
:1002A800C01A5241830A8B4201D38B02C01A5241B1
:1002B800430A8B4201D34B02C01A5241030A8B42B4
:1002C80001D30B02C01A5241CDD2C3098B4201D3CC
:1002D800CB01C01A524183098B4201D38B01C01A4A
:1002E800524143098B4201D34B01C01A52410309C1
:1002F8008B4201D30B01C01A5241C3088B4201D370
:10030800CB00C01A524183088B4201D38B00C01A1C
:10031800524143088B4201D34B00C01A5241411A43
:1003280000D20146524110467047FFE701B5002050
:1003380000F006F802BDC0460029F7D076E77047FE
:100348007047C04670B50C4D0C4E761BB61005D0E4
:10035800002408CD01349847A642FAD100F0E2FE05
:10036800074D084E761BB61005D0002408CD013481
:100378009847A642FAD170BD6412000864120008BA
:100388006412000868120008F0B5C64600B50F2AC6
:1003980043D90B00032603431E400C000300002E24
:1003A80040D11500103D2D09AC462D01A8468044CA
:1003B80000E03B00676825685F60E7681D60DF60F4
:1003C8001F00A56810379D6010344345F1D165467C
:1003D8000F230C2401352D014919134045191442E6
:1003E80023D08C59AC5104369C1B032CF9D8032418
:1003F800043B9B0801339B002240ED18C918561E88
:10040800002A07D0002300E02300CA5C5C1CEA54E1
:100418009E42F9D104BC9046F0BD0500561E002A44
:10042800F0D1F7E7561E0500ECE71A00F6E7C046DC
:10043800002382B0054A0193019B934201D902B07F
:100448007047019B01330193F6E7C046FE0F000099
:1004580010B504002078013400F03EF92378002B11
:10046800F8D110BDF8B504000E0005002B1B9E4204
:1004780004DC0023A419013C23700AE000F014F9FD
:100488002F0028700028F9D001350A28EED1002362
:100498003B70F8BD30B58DB002AC00F065F800F0E7
:1004A8008FF800F0CDF8062224492000FFF76CFFF2
:1004B8002348FFF7CDFF2348FFF7CAFFFFF7B8FF30
:1004C8002148FFF7C5FFFFF7B3FF2048FFF7C0FF3C
:1004D800FFF7AEFF1E48FFF7BBFFFFF7A9FF1D4858
:1004E800FFF7B6FF1C48FFF7B3FF04AD00F0D4F8E0
:1004F8001A48FFF7ADFF20212800FFF7B3FF00F0EF
:10050800C3F80023E15CEA5C914214D10133062B65
:10051800F8D11348FFF79CFF0CE0019B01330193CE
:10052800019B002BF9DDFFF783FFFFF781FF0D48E3
:10053800FFF78EFFFEE70023F1E7C0465D120008D3
:10054800471100086A11000887110008A411000863
:10055800C1110008DE110008E1110008101200089E
:100568004312000834120008F0B590270024012532
:100578000326042397B0FF05380005A905930695BF
:100588000794089600F02AFB102305A93800059364
:1005980006950794089600F021FB05230AA80B93FB
:1005A8000A960D94139400F0ADF80723210001A8D2
:1005B800019302950394049400F086FA17B0F0BDF5
:1005C800802170B51B4C8902626988B00A43626158
:1005D800636990200B400193019BC023DB00012538
:1005E80003260393022303A9C005049305950795E1
:1005F800069600F0F3FA8021A269C9010A43A261B4
:10060800A3690D480B400293029B236BB3431D4320
:100618000A4B2563036096231B0243600023836013
:10062800C360036183610C33436100F041FC08B08F
:1006380070BDC04600100240240000200038014070
:100648008020104A70B55169800201435161536995
:1006580086B0034000939024009B01238025002648
:10066800E4052000029301A902330493019503963F
:1006780000F0B4FA32002900200000F061FB06B057
:1006880070BDC04600100240902010B501228021A4
:10069800C00500F055FB10BD902010B50022802148
:1006A800C00500F04DFB10BD37B508256B46DC1DB5
:1006B800012232232100064800F02CFC002801D139
:1006C80020783EBD034A136A2B431362EEE7C04607
:1006D800240000200038014007B56B460122D91DCF
:1006E8000870024B024800F08DFC07BD881300001B
:1006F80024000020024B1868421C1A607047C0464C
:1007080020000020F0B50368050085B0DB072FD472
:100718002B689B0700D581E02B681B0700D5BCE040
:100728002B685B0700D5DFE02B68DB061AD56A6902
:100738000423B54C012A00D04AE1616B02270B4320
:100748006363636B1A436263FFF7D4FF0600636B4E
:100758003B4200D135E1F821626BAB698A43DB008B
:1007680013436363296A002900D059E1002013E08C
:100778000C21A54C62680A40042A06D063680B4025
:10078800082B0BD16368DB0308D523689B03BFD50F
:100798006B68002BBCD1012005B0F0BD6B68012B44
:1007A80013D1802322685B0213432360FFF7A2FF63
:1007B80080270600BF0223683B42A9D1FFF79AFFB2
:1007C800801B6428F7D90320E6E7002B16D123689D
:1007D8008E4A80271340236023688D4ABF02134046
:1007E8002360FFF787FF060023683B4200D18FE7AD
:1007F800FFF780FF801B6428F6D9E4E7052B05D1B5
:1008080080232268DB0213432360CAE723687F4AF8
:100818001340236023687E4A1340C6E70C227A4CB3
:100828006368134206D063681340082B10D16368CD
:10083800DB030DD423689B0702D5EB68012BAAD1F3
:10084800F82122682B698A43DB001343236063E79E
:10085800EA680123002A0FD0226802271343236085
:10086800FFF748FF060023683B42E9D1FFF742FF44
:10087800801B0228F7D9A6E7226802279A4322603C
:10088800FFF738FF060023683B4200D144E7FFF733
:1008980031FF801B0228F6D995E7EA6901235A4CF3
:1008A800002A10D0626A022713436362FFF722FF0F
:1008B8000600636A3B4200D032E7FFF71BFF801B4C
:1008C8000228F6D97FE7626A02279A436262FFF735
:1008D80011FF0600636A3B4200D121E7FFF70AFFD8
:1008E800801B0228F6D96EE780220021464C52056B
:1008F800E3690091134208D1E3691343E361E369B3
:1009080013400393039B012300938027414E7F00EC
:1009180033683B4206D0AB68012B13D1226A1343DC
:10092800236230E033683B433360FFF7E3FE019016
:1009380033683B42EFD1FFF7DDFE019BC01A642804
:10094800F6D940E70122002B14D1236A02279343EA
:100958002362236A033293432362FFF7CBFE060028
:10096800236A3B4216D0FFF7C5FE2B4B801B9842EB
:10097800F6D928E7052B16D1216A013B0B432362E0
:10098800236A1A432262FFF7B5FE02270600236A8C
:100998003B420FD0009B012B00D0C5E6E3691F4AFC
:1009A8001340E361C0E6236A934304222362236A67
:1009B8009343B5E7FFF79EFE174B801B9842E6D995
:1009C80001E7FFF797FE801B022800D8BFE6FAE68A
:1009D800053203D1626B9A436263BCE6626B0227FD
:1009E800134301226363636B93436363FFF782FEE0
:1009F8000600636B3B4200D1B4E6FFF77BFE801B29
:100A08000228F6D9DFE6C04600100240FFFFFEFFCD
:100A1800FFFFFBFF0070004088130000FFFFFFEF9F
:100A28000C22264C012063681340082B00D1B3E642
:100A38002368234A1340236002292FD1FFF75AFE67
:100A480080270600BF0423683B4221D10F22E36AB6
:100A580080269343EA6AB6041343E362696AAB6A81
:100A680062680B4317490A40134363608023226876
:100A78005B0413432360FFF73DFE05002368334200
:100A880000D073E6FFF736FE401B0228F6D99AE637
:100A9800FFF730FE801B0228D5D994E6FFF72AFE1F
:100AA80080260500B6042368334200D15EE6FFF7CE
:100AB80021FE401B0228F6D985E6C04600100240F8
:100AC800FFFFFFFEFFFFC2FFF7B501223E4C050006
:100AD80023680F0013408B4212D32A68930719D456
:100AE800D3071FD4012322681A40BA425DD82B6865
:100AF8005B0761D4E122354BD20300201A6008E07D
:100B0800236893430B432360236813408B42E4D04C
:100B18000120FEBDF0202E494B688343A86803439B
:100B28004B60DDE72A4E6A683368012A1AD19B03B5
:100B3800EED5032173688B4313437360FFF7DAFD27
:100B48006B680190012B15D10C2273681340042B9C
:100B5800C8D0FFF7CFFD019BC01A1E4B9842F3D9AE
:100B68000320D6E7022A02D19B01E2D4D0E79B07F3
:100B7800DFD4CDE7022B12D00C2273681342B1D018
:100B8800FFF7B8FD019BC01A124B9842F4D9E7E76A
:100B9800FFF7B0FD019BC01A0E4B9842E0D80C221B
:100BA80073681340082BF3D19CE722689A432260AC
:100BB80022681A429BD0ABE7054A074953680B40A5
:100BC800E9680B43536095E70020024000000020CD
:100BD8000010024088130000FFF8FFFF0023F0B563
:100BE80087B00A681400DC4001D107B0F0BD0126C7
:100BF80014009E4034400294324200D192E04A6888
:100C080015000192102295430395022D0DD107245A
:100C18000F251C40A400A540DA0892008218176A24
:100C2800AF430D69A5402F43176203225C00A24021
:100C3800D543AC46032507689743019A2A40A2404A
:100C4800039D3A43013D0260012D0FD86246856835
:100C58001540CA68A2402A4382604568019AB54394
:100C68000126120932409A402A4342606546C2680A
:100C78002A408D68A54080242A43C260019A6405F1
:100C880022424FD001250F27274A94692C439461AB
:100C980092699C082A4002351D40AD00AF4005927C
:100CA800059A224AA400A418A6680022BE439027E9
:100CB800FF05B8420CD01E4F0132B84208D01D4F74
:100CC8000132B84204D01C4F0132B84200D002327F
:100CD800AA403243A260194A029C1668029D019FED
:100CE800E4433543FF0301D43500254015605668B9
:100CF800029D019F3543BF0301D43500254055604F
:100D08009668029D019F3543FF0201D435002540B6
:100D18009560D568029E019F2E43BF0201D42540ED
:100D28002E00D66001335CE700100240000001404D
:100D38000004004800080048000C00480004014076
:100D4800002A01D0816170478162FCE7F8B5040090
:100D58000D0017001E002268D3692B405B1B594207
:100D68004B41BB4201D0002018E0069B0133F3D071
:100D7800069B002B13D123680C491A6803200A40EC
:100D88001A609A68A331FF318A439A6022002023AF
:100D9800693213705370002368342370F8BDFFF76D
:100DA800A9FC069B801B9842D5D9E4E75FFEFFFFAC
:100DB800030070B59A681D6904682A435D69C169B2
:100DC8002A432068334D0A43284002432260626860
:100DD80031481D6A0240D868024362609A69A06877
:100DE8002A432E4D2840024303208025A2602C4A26
:100DF8002D02126B0240013A022A43D82948805C2E
:100E0800A94220D108281BD8FFF706FA3E1A051A6E
:100E18003E1A1A1A15005968234B4808C018FFF7DC
:100E280005FA83B2002019000F221B0791435B0FBC
:100E38000B43E36070BD5968802348085B02EDE707
:100E480001200023EFE708281AD8FFF7E5F90F1962
:100E580005190F19191914005968144B4808C018B6
:100E6800FFF7E4F980B2E0600020E3E75968E12386
:100E78004808DB03F3E75968802348081B02EEE7BC
:100E88000120D7E7A942F1D15968E12348081B049A
:100E9800C4E7C046F369FFFFFFCFFFFFFFF4FFFF82
:100EA80000100240441100080048E8010024F40042
:100EB80070B5041E01D1012070BD050069352B787D
:100EC800DAB2002B02D1030068331A7024230126FA
:100ED8002B70226820001368B3431360FFF768FF84
:100EE800B042E8D023680A495A6800200A4008211D
:100EF8005A609A688A439A601A68164322001E60EC
:100F08002023E0666A3268342B7013702070D3E7B0
:100F1800FFF7FFFFF0B585B0039303006A331700AE
:100F28001A7804000D000220202A39D1013800293E
:100F380036D0002F34D08022A1685201914204D1CA
:100F48002269002A01D105422AD12200683211788B
:100F58000220012924D0012111700022E2662232E8
:100F68001A70FFF7C7FB23008021A26858331F803F
:100F78005F800600490104338A4215D12269002A9C
:100F880010D11F4A1A801F8822005A32138898B23B
:100F9800002B10D1230020226A3368341A70207085
:100FA80005B0F0BDFF22EDE7002AECD12269002A46
:100FB800F8D07F22E6E713882021013B9BB21380FB
:100FC800039B0022009320003300FFF7BFFE002898
:100FD80013D1A2682368110080225201914207D1DF
:100FE8002269002A04D19B8C3B402B800235CBE739
:100FF8009B8C3B402B700135C6E70320D0E7C046E9
:10100800FF010000F0B585B0039303006933029334
:101018001B7804000D0016000220202B48D101384F
:10102800002945D0002A43D08023A2685B019A4258
:1010380004D12369002B01D1014239D1230068333F
:101048001A780220012A33D001221A700023029A4A
:10105800E36621331370FFF74DFB230050331E80E6
:101068005E80802607007601210052310B889AB2F3
:10107800002B0ED1039B4021009320003B00FFF77B
:1010880065FE002813D12023029A6834137020705B
:101098000EE00B880022013B9BB20B80039B802152
:1010A800009320003B00FFF751FE002802D00320E8
:1010B80005B0F0BDA3682268B34208D12369002BAC
:1010C80005D12B880235DB05DB0D1385CCE72B78A2
:1010D80001351385C8E70000002103E00B4B5B587E
:1010E800435004310A480B4B42189A42F6D30A4A35
:1010F80002E0002313600432084B9A42F9D300E05F
:1011080000BFFFF71FF9FFF7C5F9FEE76C120008EB
:1011180000000020040000200400002094000020AB
:10112800FEE70000F8B5C046F8BC08BC9E4670470C
:0C113800F8B5C046F8BC08BC9E467047E5
:101144000408022A2A2A2A2A536166652D6F2D6D06
:1011540061746963203330303020426F6F74696E7C
:10116400672E2E2E0A00416C69676E696E672062D5
:101174006974732E2E2E2E2E2E2E2E5B444F4E452A
:101184005D0A00436865636B696E67204365736934
:10119400756D20524E472E2E5B444F4E455D0A001E
:1011A4004D6173717565726164696E6720666C6107
:1011B40073682E2E2E5B444F4E455D0A00446563D2
:1011C40072797074696E67206461746162617365B9
:1011D4002E2E5B444F4E455D0A000A0A00574152C9
:1011E4004E494E473A20554E415554484F52495A5C
:1011F4004544204143434553532057494C4C2042D6
:10120400452050554E49534845440A00506C656189
:10121400736520656E7465722070617373776F7285
:101224006420746F20636F6E74696E75653A200074
:1012340050415353574F5244204641494C0A0041B0
:101244006363657373206772616E7465642C2057E1
:10125400656C636F6D65210A006830707833000037
:04126400FD01000880
:04126800D1010008A8
:04126C0000127A00F2
:04000005080010E1FE
:00000001FF
